:020000040000FA
:100000000C9435000C945D000C945D000C945D0024
:100010000C945D000C945D000C945D000C945D00EC
:100020000C945D000C945D000C945D000C945D00DC
:100030000C945D000C945D000C945D000C945D00CC
:100040000C944B050C945D000C945D000C945D00C9
:100050000C945D000C945D000C945D000C945D00AC
:100060000C945D000C945D00DD0611241FBECFEFE3
:10007000D8E0DEBFCDBF11E0A0E0B1E0EAEEFEE0E7
:1000800002C005900D92A632B107D9F723E0A6E28F
:10009000B1E001C01D92AD3BB207E1F710E0C5E34E
:1000A000D0E004C02197FE010E945907C433D10754
:1000B000C9F70E9495050C9473070C9400003FB794
:1000C000F89480919C0390919D03A0919E03B09120
:1000D0009F0326B5A89B05C02F3F19F00196A11DCF
:1000E000B11D3FBFBA2FA92F982F8827BC01CD0182
:1000F000620F711D811D911D42E0660F771F881FE1
:10010000991F4A95D1F708954F925F926F927F920F
:100110009F92AF92BF92CF92DF92EF92FF920F9396
:100120001F93CF93DF9300D01F92CDB7DEB7D82EA9
:100130008091AD039091AE03A091AF03B091B00355
:10014000892B8A2B8B2BD9F00E945F000091B90379
:100150001091BA032091BB033091BC03601B710B5B
:10016000820B930B0091AD031091AE032091AF036E
:100170003091B0036017710782079307C8F20E949D
:100180005F006093B9037093BA038093BB039093AD
:10019000BC03E091B503F091B603309759F040915C
:1001A000B1035091B2036091B3037091B4038D2DEC
:1001B0000995D82EE090B703F090B8034D2C512C40
:1001C000712C612CE114F10409F459C0D7011C967B
:1001D000CC901C978091AB039091AC038436910531
:1001E00010F41C961C92D701ED91FC91A280B38073
:1001F00019821A821B82DD2079F1F701369610E010
:1002000000E02191222319F19280992001F130E040
:1002100050E040E02F5F3F4F4F4F5F4FC301B201AF
:100220000E94ED069B01AC01892D90E0B0E0A0E0BA
:10023000BC01CD016F5F7F4F8F4F9F4F0E94ED0636
:10024000A1E0B0E0AC0FBD1FA00FB11F8C930F5FFA
:100250001F4F03301105A9F609811A812B81F7017F
:100260004585568562817381C701F5010995D701DE
:100270001C96CC921C971496ED90FC90A3CF809185
:10028000A8039091A9039C012F5F3F4F3093A903CE
:100290002093A80349970CF44AC08FB7F894209193
:1002A000A0033091A1034091A2035091A3038FBFFB
:1002B0008091A4039091A503A091A603B091A703F8
:1002C000281B390B4A0B5B0B21F421E030E040E0A6
:1002D00050E0E091A803F091A90388EE93E0E89F35
:1002E000B001E99F700DF89F700D1124072E000CCE
:1002F000880B990B0E9411073093AC032093AB033A
:100300001092A9031092A8032FB7F8948091A0032C
:100310009091A103A091A203B091A3032FBF80935A
:10032000A4039093A503A093A603B093A7030F90F3
:100330000F900F90DF91CF911F910F91FF90EF9051
:10034000DF90CF90BF90AF909F907F906F905F9025
:100350004F9008958F929F92AF92BF92CF92DF926B
:10036000EF92FF924B015C010E945F006B017C01E8
:100370000E945F006C197D098E099F09683E7340D9
:1003800081059105A8F321E0821A9108A108B1081E
:1003900088EEC80E83E0D81EE11CF11C8114910484
:1003A000A104B10429F7FF90EF90DF90CF90BF90A8
:1003B000AF909F908F90089580E991E008950F93FA
:1003C0001F93CF93DF93209127012F5F322F377038
:1003D0003093270120FF2BC020E831FD20643470CA
:1003E00009F02062205FFC01EC01239600E011E09F
:1003F0006485662329F070E0C8010E94FD066F5FE6
:100400006187322F369F030E30E0311D11243111E8
:1004100010C01682662311F0615061873196EC1787
:10042000FD0731F7DF91CF911F910F91089520E0E3
:10043000D4CF31503683EECF4F925F927F928F921E
:100440009F92AF92BF92CF92DF92EF92FF920F9363
:100450001F93CF93DF932C01EB010E945F00F20109
:1004600027853089621B730B6A307105B0F3F894ED
:100470008A819B81181619060CF0CDC1E881F9819B
:100480006BB1862E689485F83BB13F7D3BB9D9842A
:100490008E812D2D281B822F2E834F85042E000C3C
:1004A000550BAA81BB817C85FD84EE847F5FF3942C
:1004B000E3949F819884BA84AB841081C12C6C2D05
:1004C0000C2D2C2D2081112788942111280F08F440
:1004D0002FEF8195889470FD120F1795889471FD08
:1004E000120F1795889472FD120F1795889473FD5B
:1004F000120F1795889474FD120F1795889475FD47
:10050000120F1795889476FD120F1795889477FD32
:10051000120F17958894622F7111612F8D0D162F70
:10052000002C8BB800C000C017FF3BB921816627A3
:10053000889400C0002C3BB92111290F00C0002C69
:100540008BB800C000C016FF3BB908F42FEF91959F
:10055000889400C0002C3BB9F0FC620F00C0002C56
:100560008BB800C000C015FF3BB967958894F1FCBB
:10057000620F00C0002C3BB96795889400C0002C26
:100580008BB800C000C014FF3BB9F2FC620F679546
:10059000889400C0002C3BB9F3FC620F00C0002C13
:1005A0008BB800C000C013FF3BB967958894F4FC7A
:1005B000620F00C0002C3BB96795889400C0002CE6
:1005C0008BB800C000C012FF3BB9F5FC620F679505
:1005D000889400C0002C3BB9F6FC620F00C0002CD0
:1005E0008BB800C000C011FF3BB967958894F7FC39
:1005F000620F00C0002C3BB96795889400C0002CA6
:100600008BB800C000C010FF3BB9122FF110162F9D
:100610009B0D00C0002C3BB900C000C0002C8BB863
:1006200000C000C017FF3BB922816627889400C034
:10063000002C3BB92111290D00C0002C8BB800C043
:1006400000C016FF3BB908F42FEFE40FF51F00C000
:10065000002C3BB9E0FC620F00C0002C8BB800C03E
:1006600000C015FF3BB967958894E1FC620F00C09C
:10067000002C3BB96795889400C0002C8BB800C053
:1006800000C014FF3BB9E2FC620F6795889400C07C
:10069000002C3BB9E3FC620F00C0002C8BB800C0FB
:1006A00000C013FF3BB967958894E4FC620F00C05B
:1006B000002C3BB96795889400C0002C8BB800C013
:1006C00000C012FF3BB9E5FC620F6795889400C03B
:1006D000002C3BB9E6FC620F00C0002C8BB800C0B8
:1006E00000C011FF3BB967958894E7FC620F00C01A
:1006F000002C3BB96795889400C0002C8BB800C0D3
:1007000000C010FF3BB9122FE110162F919400C0CA
:10071000002C3BB99A0C00C000C08BB800C000C0D0
:1007200017FF3BB920816627889400C0002C3BB995
:100730002111280F00C0002C8BB800C000C016FF8C
:100740003BB908F42FEF8195889400C0002C3BB989
:1007500070FD620F00C0002C8BB800C000C015FFF8
:100760003BB96795889471FD620F00C0002C3BB9BE
:100770006795889400C0002C8BB800C000C014FF9F
:100780003BB972FD620F6795889400C0002C3BB99D
:1007900073FD620F00C0002C8BB800C000C013FFB7
:1007A0003BB96795889474FD620F00C0002C3BB97B
:1007B0006795889400C0002C8BB800C000C012FF61
:1007C0003BB975FD620F6795889400C0002C3BB95A
:1007D00076FD620F00C0002C8BB800C000C011FF76
:1007E0003BB96795889477FD620F00C0002C3BB938
:1007F0006795889400C0002C8BB800C000C010FF23
:100800003BB9122F7111162F8D0D00C0002C3BB972
:10081000119709F086CE4A815B8120EE31E0DA0142
:100820000E943307DC01CB01F4E0B695A7959795BC
:100830008795FA95D1F730E020E0B901EAE94E9FBB
:10084000040E611D5E9F600D711D1124650F711DE9
:10085000860F971FA11DB11D893E43E09407A10596
:10086000B10508F434C0885E9340A109B10942E0A3
:10087000B695A795979587954A95D1F747E0849FB8
:10088000080E211D949F200D311D1124290F311DAB
:100890006091260170E0860F971F820F931F409191
:1008A000A0035091A1036091A2037091A303292F8B
:1008B0003327420F531F611D711D4093A0035093B6
:1008C000A1036093A2037093A303809326017894FD
:1008D0000E945F00F201708B6787DF91CF911F91BB
:1008E0000F91FF90EF90DF90CF90BF90AF909F90CF
:1008F0008F907F905F904F90089581E090E00895F1
:10090000559A08956F927F928F92CF92DF92EF92D5
:10091000FF920F931F93CF93DF93CDB7DEB762970C
:100920000FB6F894DEBF0FBECDBF6C017A0138015F
:10093000822EDC011C962C91CA0157FF04C0882727
:100940009927841B950B7A8369839C838B839E8371
:100950008D836D867E868F86213049F5CE01019686
:100960000E94DF0183E0888B1A8A198AF7FE02C091
:100970008DEF888BD601ED91FC910684F785E02DF3
:10098000BE016F5F7F4FC601099562960FB6F8945E
:10099000DEBF0FBECDBFDF91CF911F910F91FF90B2
:1009A000EF90DF90CF908F907F906F9008951C868E
:1009B0001B861A86198618861F82D4CFEF92FF9263
:1009C0000F931F93CF93DF93CDB7DEB762970FB628
:1009D000F894DEBF0FBECDBF7C01DC011C968C916C
:1009E0007A8369835C834B835E834D830D871E8787
:1009F0002F878130F9F4CE0101960E94DF01188A19
:100A00001A8A198AD701ED91FC910684F785E02DA9
:100A1000BE016F5F7F4FC701099562960FB6F894CC
:100A2000DEBF0FBECDBFDF91CF911F910F91FF9021
:100A3000EF9008951C861B861A86198618861F82D9
:100A4000DECF90E080E00895FC01858596850895CD
:100A50000F931F93CF93DF9300D01F92CDB7DEB7D4
:100A6000AB0119821A821B82DC01ED91FC9101908D
:100A7000F081E02D00E010E020E0BE016F5F7F4FCD
:100A800009950F900F900F90DF91CF911F910F91CB
:100A900008950E946E071F920F920FB60F921124B5
:100AA0002F933F938F939F93AF93BF938091A00316
:100AB0009091A103A091A203B091A30330919B0355
:100AC00023E0230F2D3758F50196A11DB11D20936A
:100AD0009B038093A0039093A103A093A203B093E0
:100AE000A30380919C0390919D03A0919E03B091DC
:100AF0009F030196A11DB11D80939C0390939D03BC
:100B0000A0939E03B0939F03BF91AF919F918F914C
:100B10003F912F910F900FBE0F901F90189526E8D0
:100B2000230F0296A11DB11DD2CF789484B58260A7
:100B300084BD84B5816084BD85B5826085BD85B581
:100B4000816085BD80916E00816080936E001092FF
:100B5000810080918100826080938100809181007A
:100B6000816080938100809180008160809380000B
:100B70008091B10084608093B1008091B000816069
:100B80008093B00080917A00846080937A00809195
:100B90007A00826080937A0080917A0081608093ED
:100BA0007A0080917A00806880937A001092C10068
:100BB00068EB7BE080E090E00E94AA0180913B011D
:100BC000811145C010922D0110922C018FEF80935E
:100BD00030018093310180933201809333018093FF
:100BE00034018093350181E0809336011092380101
:100BF0001092370110922F0110922E018091B703AD
:100C00009091B803892B31F48AE291E09093B80374
:100C10008093B703E0912801F0912901309721F0EA
:100C20008AE291E0958384838AE291E0909329019E
:100C30008093280110923A011092390186E191E0E7
:100C400090932B0180932A0181E080933B01559A78
:100C50008FE692E090932D0180932C0184E690E042
:100C600090933801809337018091AD039091AE034A
:100C7000A091AF03B091B003843C29E09207A10595
:100C8000B10520F484EC99E0A0E0B0E08093AD03DE
:100C90009093AE03A093AF03B093B0038FEF809314
:100CA000300190EB9093310190EF9093320180935B
:100CB000AA03CFEFD0E800E010E043E451E09A014E
:100CC000F90190E080E08830910524F41082D1830E
:100CD000128207C0C083803191050CF06CC0C183C3
:100CE000C283019633968931910569F7255B3F4FA1
:100CF00082E02F36380721F768E973E030E020E022
:100D000090E080E07901E1E0EE22FF24DB01A80F12
:100D1000B91FFA01E81BF90BE114F10429F0FC01F9
:100D2000E85BFF4FE40FF51F6080718082806D9259
:100D30007D928C920397853BEFEF9E0739F72F5FEB
:100D40003F4F455B5F4F6B54710924303105C1F64D
:100D50008091AA030E9484008FB7F894C090A003EA
:100D6000D090A103E090A203F090A3038FBF61E0B5
:100D700070E080E090E00E94AA018091AA030E94A6
:100D800084002FB7F8948091A0039091A103A091C3
:100D9000A203B091A3032FBF8C199D09AE09BF090F
:100DA0000A97A105B10518F30115110509F485CFBE
:100DB0000E94000082CF11828BCFEAEAF3E08FEF2E
:100DC000808312821182148613868FEF9FEFDC01DD
:100DD00087839087A187B2870895DB018F939F93C4
:100DE0000E943A07BF91AF91A29F800D911DA39FD2
:100DF000900DB29F900D1124089597FB072E16F4C5
:100E0000009407D077FD09D00E94450707FC05D064
:100E10003EF4909581959F4F0895709561957F4F11
:100E20000895A1E21A2EAA1BBB1BFD010DC0AA1F2B
:100E3000BB1FEE1FFF1FA217B307E407F50720F043
:100E4000A21BB30BE40BF50B661F771F881F991FBE
:100E50001A9469F760957095809590959B01AC0107
:100E6000BD01CF0108950E945F07B7FF0895821B5F
:100E7000930B08950E945F07A59F900DB49F900D5E
:100E8000A49F800D911D11240895AA1BBB1B51E145
:100E900007C0AA1FBB1FA617B70710F0A61BB70BEA
:100EA000881F991F5A95A9F780959095BC01CD018F
:100EB0000895EE0FFF1F0590F491E02D0994A29F75
:100EC000B001B39FC001A39F700D811D1124911D1E
:100ED000B29F700D811D1124911D089581E090E055
:100EE000F8940C947307F894FFCF000000004905B4
:100EF00049054905280524057D0421050000000059
:100F0000DE0482048004280524057D04DC011C0223
:107E0000112484B714BE81FFF0D085E080938100F7
:107E100082E08093C00088E18093C10086E0809377
:107E2000C20080E18093C4008EE0C9D0259A86E02C
:107E300020E33CEF91E0309385002093840096BBD3
:107E4000B09BFECF1D9AA8958150A9F7CC24DD24C4
:107E500088248394B5E0AB2EA1E19A2EF3E0BF2EE7
:107E6000A2D0813461F49FD0082FAFD0023811F036
:107E7000013811F484E001C083E08DD089C08234E0
:107E800011F484E103C0853419F485E0A6D080C0E4
:107E9000853579F488D0E82EFF2485D0082F10E0AE
:107EA000102F00270E291F29000F111F8ED06801E7
:107EB0006FC0863521F484E090D080E0DECF843638
:107EC00009F040C070D06FD0082F6DD080E0C81688
:107ED00080E7D80618F4F601B7BEE895C0E0D1E017
:107EE00062D089930C17E1F7F0E0CF16F0E7DF06D8
:107EF00018F0F601B7BEE89568D007B600FCFDCFD4
:107F0000A601A0E0B1E02C9130E011968C91119780
:107F100090E0982F8827822B932B1296FA010C0160
:107F200087BEE89511244E5F5F4FF1E0A038BF0790
:107F300051F7F601A7BEE89507B600FCFDCF97BE46
:107F4000E89526C08437B1F42ED02DD0F82E2BD052
:107F50003CD0F601EF2C8F010F5F1F4F84911BD097
:107F6000EA94F801C1F70894C11CD11CFA94CF0C13
:107F7000D11C0EC0853739F428D08EE10CD085E9AC
:107F80000AD08FE07ACF813511F488E018D01DD067
:107F900080E101D065CF982F8091C00085FFFCCF94
:107FA0009093C60008958091C00087FFFCCF809118
:107FB000C00084FD01C0A8958091C6000895E0E648
:107FC000F0E098E1908380830895EDDF803219F02E
:107FD00088E0F5DFFFCF84E1DECF1F93182FE3DFCA
:107FE0001150E9F7F2DF1F91089580E0E8DFEE27F6
:047FF000FF270994CA
:027FFE00040479
:00000001FF
